:0E0000000C9441000C9400000C9400000C9431
:10000E0000000C9400000C9400000C9400000C9462
:10001E0000000C9400000C9400000C9400000C9452
:10002E0000000C9400000C9400000C9400000C9442
:10003E0000000C9400000C9400000C9400000C9432
:10004E0000000C9400001027E80364000A00010071
:10005E00001000011000010000000000000073619C
:10006E006C616D0080C00600040066000200600135
:10007E0072000000F894EE27ECBBF1E0FBBFEBBF83
:10008E00E5BFF8E1F1BDE1BD8DE0A2E0BB27ED9348
:10009E008A95E9F780E094E0A0E6ED930197E9F701
:1000AE00E4E7F0E085919591009761F0A591B59107
:1000BE0005901590BF01F00105900D920197E1F7A3
:1000CE00FB01F0CFEFE5EDBFE4E0EEBFC0E6D1E01F
:1000DE000C947F00AA93E881E7B983E08A95F1F743
:1000EE00369A349BFECF349AE4B1F5B10C948E015E
:1000FE00E0E0EBBBEABBE8BBE7BBE5BBE4BBE2BBC6
:10010E00E1BBE3BFE2BFECBFEFBDEEBDEDBDECBDAD
:10011E00E7BDE6BDEBBDEABDE9BDE8BDE2BDE2E689
:10012E00E5BDE0E0E4BDE3BDE3BDE5BFE4BFE9BF8F
:10013E00E2E0EBB9E8E0EAB9E6E8E0BDE0E0E0BD18
:10014E00ECE0E9B9E0E8E8B9E0E0E0BFE7B9E3E800
:10015E00E6B9E0E0EDB9E6BFA0E1A8D073D0ACE619
:10016E00B0E091D0A8EEB3E00E94A4016BD0882439
:10017E00992466247724EAE0F0E06E167F06D4F424
:10018E00A0E0A8DF2F010E949C020E941402A8E4A6
:10019E00B1EE8AEF9EE30E9442020E94DD012F0122
:1001AE00840C951CA4E6B0E00E94A401F3013196E4
:1001BE003F01E1CFD401EAE0F0E00E94B4022F014A
:1001CE00A0E088DFE3BDE4E1F0E0E415F50524F4FA
:1001DE000E949001AA9803C00E949001AA9AA42D91
:1001EE000E948901C4CFFFCFAA93E8B3EF70AE2F60
:1001FE00E881E07FEA2BE8BB82E08A95F1F7C29AAC
:10020E0082E08A95F1F7C29882E08A95F1F70C9414
:10021E008E01AA93A881E8DFE881E295E883A881A0
:10022E00E3DF81E18A95F1F772C0AA93E881F0E0ED
:10023E00E05AFE4FE081A981AE0FEBDFB980A880B6
:10024E0022960895A2E00E949701ACE0E2DFA1E0C1
:10025E000E949701E0E0AE2EBE2E0895AA93A881CB
:10026E00AA3011F0BD1448F0E0E0EA93A394AA2D51
:10027E00DCDFA881AA3009F44AC0B394C09AA881E1
:10028E00C8DFC09844C0BA93AA931A93E981FA8141
:10029E003196E983FA833197E4911E2FE03019F0FD
:1002AE00A12FDCDFF3CF188123960895AA93E7B32D
:1002BE00E06FE7BBBA9AB89AB99AC298C098C1983B
:1002CE00D880E881E058E0936201E881E054E09341
:1002DE006301A4E1B0E00E94A4010E949D010E946E
:1002EE009D010E949D01A0E27FDF81E28A95F1F7D8
:1002FE00A8E28FDFA4E08DDFA5E88BDFA6E089DF23
:10030E00A1DF05C0AA935D9BFECFE881ECB92196D3
:10031E000895A09AA19AA29A8F9AA898A99A089538
:10032E000E941001A3E0B0E00C94A401A0E30E948F
:10033E00FB0081E28A95F1F70895109639F0A895A1
:10034E008AEF90E00197F1F71197C9F708955523B9
:10035E0042F4503811F4E0FF04C03196691F791F42
:10036E006BF050E8572711F45F9373C05F3F31F085
:10037E00660F000C57956795752F08955F930020B3
:10038E000AF073C06CC050E8192E1522880F991F01
:10039E009527550F879550E8072E0522660F771F74
:1003AE007527550F67950895689401C0E8945F937B
:1003BE00F2DF703818F07F3F08F44BC056E1571B40
:1003CE00AAF4519558300EF4593030F0EFEFFFEF9C
:1003DE006FEF7FE777F91AC077275523B9F0EE0F45
:1003EE00FF1F661F771F5A95D1F710C07727583019
:1003FE0028F0EF2FF62F672F5850F9CF552331F0F5
:10040E0076956795F795E7955A95D1F700200AF4FA
:10041E0084D05F910895689401C0E894309760404D
:10042E007040B1F0002426F0772312F4009475D0BA
:10043E00172E7EE1112032F07A95EE0FFF1F661F08
:10044E00111CF9CFEF2FF62F612D5F938ADF5F918D
:10045E000895EE27FF27662777275F910895EFEF20
:10046E00FFEF6FE77FEF5F910895EFEFFFEF6FE71D
:10047E007FE75F9108955F9386DF703851F3903870
:10048E0041F301240894791F23F41CF300203AF35E
:10049E00ECCF0F921F932F933F934F931127222749
:1004AE009927689FA0018F9F302D410D591F6B9F7B
:1004BE00300D411D591F8E9F27D0BF9F25D06A9F9B
:1004CE0023D0BE9F1DD0AF9F1BD0AE9F110D291FF5
:1004DE00391F491F591FE32FF42F652F522F4F91AC
:1004EE003F912F911F910F9066232AF0550FEE1F0B
:1004FE00FF1F661F02C073954BF229DF5F910895AF
:10050E00100D211D391F02C0200D311D491F591F0D
:10051E000895F195E195F0400895F09560957095E8
:10052E00E195FF4F6F4F7F4F08956F2F660F660B4C
:10053E00762F08950024112490E1AA0FBB1F001CF2
:10054E00111C0E1A1F0A18F40E0E1F1E01C0A160F8
:10055E009A9599F7FD01D001089504D0EBDF0EF4C2
:10056E00D8DF0895E894F7FF02C0D3DF6894B7FF91
:10057E0006C0A095B095119600F8039400FA089560
:00000001FF
