:080000000C9443000C94000075
:100008000C9400000C9400000C9400000C94000068
:100018000C9400000C9400000C9400000C94000058
:100028000C9400000C9400000C9400000C94000048
:100038000C9400000C9400000C9400000C94000038
:100048000C9400000C9400000C9400001027E803A6
:1000580064000A0001000010000110000100000007
:1000680048656C6C6F2E2E2100256425000080C029
:1000780002000400660002006A0176000000F8949D
:10008800EE27ECBBF1E0FBBFEBBFE5BFF8E1F1BD4C
:10009800E1BD8DE0A2E0BB27ED938A95E9F780E00A
:1000A80094E0A0E6ED930197E9F7E8E7F0E08591A1
:1000B8009591009761F0A591B59105901590BF01B4
:1000C800F00105900D920197E1F7FB01F0CFEFE504
:1000D800EDBFE4E0EEBFC0E6D1E00C947300E0E0D1
:1000E800EBBBEABBE8BBE7BBE5BBE4BBE2BBE1BB00
:1000F800E3BFE2BFECBFEFBDEEBDEDBDECBDE7BDBC
:10010800E6BDEBBDEABDE9BDE8BDE2BDE5BDE4BDC8
:10011800E3BDE5BFE4BFE9BFE2E0EBB9E0E1EAB97E
:10012800E6E8E0BDE0E0E0BDECE0E9B9E0E8E8B928
:10013800E0E0E0BFE6B9EDB9E6BFA0E19CD058D059
:10014800A8E6B0E085D0A8EEB3E00E946A0350D0DC
:100158000E946C014E2E5524A4E6B0E00E946A036A
:1001680047D0E0E6F1E0FA93EA93E1E7F0E0FA93AA
:10017800EA93F2010E947C030E94890384E00E94B2
:10018800E4022896A0E6B1E054D0A4EFB1E00E94C2
:100198006A03DECFFFCFAA93E8B3EF70AE2FE881F2
:1001A800E07FEA2BE8BB82E08A95F1F7C29A82E009
:1001B8008A95F1F7C29882E08A95F1F787C0AA93E9
:1001C800A881E9DFE881E295E883A881E4DF81E19D
:1001D8008A95F1F77BC0AA93E881F0E0E659FE4FD3
:1001E800E081A981AE0FEBDF7980688022960895BF
:1001F800A2E00E943103ACE0E2DFA1E00E943103FB
:10020800E0E06E2E7E2E0895AA93A881AA3011F000
:10021800791448F0E0E0EA936394A62DDCDFA88126
:10022800AA3009F453C07394C09AA881C8DFC09853
:100238004DC0BA93AA931A93A981BA81ED91A98363
:10024800BA831E2FE03019F0A12FDEDFF5CF10C0E2
:10025800BA93AA931A93E981FA813196E983FA83CA
:100268003197E4911E2FE03019F0A12FCDDFF3CFA5
:10027800188123960895AA93E7B3E06FE7BBBA9A6B
:10028800B89AB99AC298C098C1989880E881E058FD
:10029800E0936C01E881E054E0936D01A4E1B0E0E3
:1002A8000E946A030E9437030E9437030E943703A3
:1002B800A0E271DF81E28A95F1F7A8E280DFA4E08D
:1002C8007EDFA5E87CDFA6E07ADF92DF219608953D
:1002D8005F9BFECFECB10895BA93AA931A930A9341
:1002E800AA81BB8112960E948103309759F1AA8195
:1002F800BB8114960E9481038F01309761F0023010
:10030800E0E01E0798F0F80131978F01AA81BB81C0
:100318001496ED93FC93AA81BB811296ED91FD9101
:100328003196FE93EE933197AC81A083AA81BB816D
:100338000E948103FF232AF0ED91FD913196FE93EF
:10034800EE9306C0AA81BB81EFEFFFEFED93FC931C
:100358001981088125960895BA93AA9326970E9431
:100368008E0310E0AC85BD85E0E0F0E0ED93FC93F2
:10037800EA89FB893196EA8BFB8B3197E4912E2F22
:10038800E03009F415C1E12FE03039F4253211F4D9
:1003980011E002C00E943E030AC1E130A9F42532EF
:1003A80019F40E943E0302C112E040E000E02D3241
:1003B80011F401E0FCC02B3211F44BE2F8C02032FA
:1003C80011F440E2F4C002C0E23039F450E013E026
:1003D800203311F40068EBC003C0E33009F0E7C034
:1003E800203310F02A3308F007C0AAE05A9F502D96
:1003F800E22FE0535E0FDBC0E22FE33649F40E94A0
:100408004503E889F989A481AA930E944B03CEC0C9
:10041800E33741F40E9445030E9451030E941803E8
:100428001E2F0AC0E03761F40E9445030E94510361
:100438000E9424031E2F086002600F7730E034C04A
:10044800E43611F0E93611F4046002C0E53731F4FE
:10045800E4E5F0E0EE83FF8315E00CC0E83511F425
:10046800086003C0E83709F0A1C0EEE5F0E0EE83CC
:10047800FF8314E002FF14C00E9445030E945B033F
:10048800AB85AA233AF4EA85FB850E947803EA87BC
:10049800FB874DE2403011F01F5F01C00B7F04C0A5
:1004A8000E9445030E945B0300FD11C0151778F4F4
:1004B80007FF08C002FF04C00B7F242F115001C0A2
:1004C80020E301C020E20E943E035150EFCF312FBC
:1004D80001FF17C03030A1F003FF06C0EE81FF8195
:1004E8002591EE83FF8305C0AE81BF812D91AE8338
:1004F800BF830E943E03503009F051503150EACF7B
:100508004BC020E3EE81FF810E948503E887F987CD
:10051800EE81FF813296EE83FF83E885F985AA850F
:10052800BB85AE17BF0750F02F5FA885B985EA8550
:10053800FB85EA1BFB0BEA87FB87EFCF2A3328F002
:1005480003FF02C0295F01C0295D04FD1AC02133E1
:1005580020F4A885B985119709F409C0531710F03C
:1005680000FF01C013C020E207FF0BC020E30061B9
:1005780002FF07C00B7F4A930E944B03503009F0DB
:1005880051500E943E03503009F051503150A88517
:10059800B985129708F0B5CF00FF08C0503031F088
:1005A8005150E0E2EA930E944B03F8CF10E0E0CE0E
:1005B800AC85BD850E9481030E94950364960895C9
:1005C800FF92F82E26970E9490030E9463033097AB
:1005D80019F4EFEFFFEF23C0DE0116960E947403B3
:1005E8008D010E946303EE83FF83E0E0E887E987DB
:1005F800DE011A960E9474030E948103FA93EA931B
:100608001A930A93E0E7F1E0FA93EA93DE011A9667
:10061800A3DE9F01AE81BF81E0E0EC93F9010E9467
:1006280097032A96FF900895BA93AA93A991B9912E
:10063800EE27FF276D91662311F03196FBCF0895C1
:10064800BA93AA93AA27BB27E991F99105900020AC
:1006580011F01196FBCFFD0108950E94E300A3E07D
:10066800B0E00C946A03A0E30E94CF0081E28A956F
:10067800F1F708952A93AD85BE85EF85F889099528
:100688000895E889F9893497E88BF98B0895AD8541
:10069800BE85EF85F88909950895A889B9891496C2
:1006A8000E948103EE83FF83AE81BF810895A889EC
:1006B800B98914960E948103EA87FB870895DE01B1
:1006C8001C960E9474030E9481030895109639F0C5
:1006D800A8958AEF90E00197F1F71197C9F7089567
:1006E8000024AF0DB01D0895F195E195F0400895EF
:1006F8006F2F660F660B762F0895ED91FC91119779
:1007080008950590F491E02D08957A936A93FA93E9
:10071800EA9308955A934A933A932A931A930A9319
:1007280008955D814C813B812A8119810881089552
:00000001FF
